:020000040000fa
:080000000002040000000000f2
:020000040000fa
:040008002a030000c7
:020000040000fa
:04000c002a030000c3
:020000040000fa
:040010002a030000bf
:020000040000fa
:040014002a030000bb
:020000040000fa
:040018002a030000b7
:020000040000fa
:04001c002a030000b3
:020000040000fa
:040020002a030000af
:020000040000fa
:040024002a030000ab
:020000040000fa
:040028002a030000a7
:020000040000fa
:04002c002a030000a3
:020000040000fa
:040030002a0300009f
:020000040000fa
:040034002a0300009b
:020000040000fa
:040038002a03000097
:020000040000fa
:04003c002a03000093
:020000040000fa
:040040002a0300008f
:020000040000fa
:040044002a0300008b
:020000040000fa
:040048002a03000087
:020000040000fa
:04004c002a03000083
:020000040000fa
:040050002a0300007f
:020000040000fa
:04005400d4020000d2
:020000040000fa
:040058002a03000077
:020000040000fa
:04005c002a03000073
:020000040000fa
:040060002a0300006f
:020000040000fa
:040064002a0300006b
:020000040000fa
:040068002a03000067
:020000040000fa
:04006c002a03000063
:020000040000fa
:040070002a0300005f
:020000040000fa
:040074002a0300005b
:020000040000fa
:040078002a03000057
:020000040000fa
:04007c002a03000053
:020000040000fa
:040080002a0300004f
:020000040000fa
:040084002a0300004b
:020000040000fa
:040088002a03000047
:020000040000fa
:04008c002a03000043
:020000040000fa
:040090002a0300003f
:020000040000fa
:040094002a0300003b
:020000040000fa
:040098002a03000037
:020000040000fa
:04009c002a03000033
:020000040000fa
:0400a0002a0300002f
:020000040000fa
:0400a4000003000055
:020000040000fa
:0400a8002a03000027
:020000040000fa
:0400ac002a03000023
:020000040000fa
:0400b0002a0300001f
:020000040000fa
:0400b4002a0300001b
:020000040000fa
:0400b8002a03000017
:020000040000fa
:0400bc002a03000013
:020000040000fa
:0400c0002a0300000f
:020000040000fa
:0400c4002a0300000b
:020000040000fa
:0400c8002a03000007
:020000040000fa
:0400cc002a03000003
:020000040000fa
:0400d0002a030000ff
:020000040000fa
:0400d4002a030000fb
:020000040000fa
:0400d8002a030000f7
:020000040000fa
:0400dc002a030000f3
:020000040000fa
:0400e0002a030000ef
:020000040000fa
:0400e4002a030000eb
:020000040000fa
:0400e8002a030000e7
:020000040000fa
:0400ec002a030000e3
:020000040000fa
:0400f0002a030000df
:020000040000fa
:0400f4002a030000db
:020000040000fa
:0400f8002a030000d7
:020000040000fa
:0400fc002a030000d3
:020000040000fa
:040100002a030000ce
:020000040000fa
:040104002a030000ca
:020000040000fa
:040108002a030000c6
:020000040000fa
:04010c002a030000c2
:020000040000fa
:040110002a030000be
:020000040000fa
:040114002a030000ba
:020000040000fa
:040118002a030000b6
:020000040000fa
:04011c002a030000b2
:020000040000fa
:040120002a030000ae
:020000040000fa
:040124002a030000aa
:020000040000fa
:040128002a030000a6
:020000040000fa
:04012c002a030000a2
:020000040000fa
:040130002a0300009e
:020000040000fa
:040134002a0300009a
:020000040000fa
:040138002a03000096
:020000040000fa
:04013c002a03000092
:020000040000fa
:040140002a0300008e
:020000040000fa
:040144002a0300008a
:020000040000fa
:040148002a03000086
:020000040000fa
:04014c002a03000082
:020000040000fa
:040150002a0300007e
:020000040000fa
:040154002a0300007a
:020000040000fa
:040158002a03000076
:020000040000fa
:04015c002a03000072
:020000040000fa
:040160002a0300006e
:020000040000fa
:040164002a0300006a
:020000040000fa
:040208002a030000c5
:020000040000fa
:04020c002a030000c1
:020000040000fa
:040210002a030000bd
:020000040000fa
:040214002a030000b9
:020000040000fa
:040218002a030000b5
:020000040000fa
:04021c002a030000b1
:020000040000fa
:040220002a030000ad
:020000040000fa
:040224002a030000a9
:020000040000fa
:040228002a030000a5
:020000040000fa
:04022c002a030000a1
:020000040000fa
:040230002a0300009d
:020000040000fa
:040234002a03000099
:020000040000fa
:040238002a03000095
:020000040000fa
:04023c002a03000091
:020000040000fa
:040240002a0300008d
:020000040000fa
:040244002a03000089
:020000040000fa
:040248002a03000085
:020000040000fa
:04024c002a03000081
:020000040000fa
:040250002a0300007d
:020000040000fa
:04025400d4020000d0
:020000040000fa
:040258002a03000075
:020000040000fa
:04025c002a03000071
:020000040000fa
:040260002a0300006d
:020000040000fa
:040264002a03000069
:020000040000fa
:040268002a03000065
:020000040000fa
:04026c002a03000061
:020000040000fa
:040270002a0300005d
:020000040000fa
:040274002a03000059
:020000040000fa
:040278002a03000055
:020000040000fa
:04027c002a03000051
:020000040000fa
:040280002a0300004d
:020000040000fa
:040284002a03000049
:020000040000fa
:040288002a03000045
:020000040000fa
:04028c002a03000041
:020000040000fa
:040290002a0300003d
:020000040000fa
:040294002a03000039
:020000040000fa
:040298002a03000035
:020000040000fa
:04029c002a03000031
:020000040000fa
:0402a0002a0300002d
:020000040000fa
:0402a4000003000053
:020000040000fa
:0402a8002a03000025
:020000040000fa
:0402ac002a03000021
:020000040000fa
:0402b0002a0300001d
:020000040000fa
:0402b4002a03000019
:020000040000fa
:0402b8002a03000015
:020000040000fa
:0402bc002a03000011
:020000040000fa
:0402c0002a0300000d
:020000040000fa
:0402c4002a03000009
:020000040000fa
:0402c8002a03000005
:020000040000fa
:0402cc002a03000001
:020000040000fa
:0402d0002a030000fd
:020000040000fa
:0402d4002a030000f9
:020000040000fa
:0402d8002a030000f5
:020000040000fa
:0402dc002a030000f1
:020000040000fa
:0402e0002a030000ed
:020000040000fa
:0402e4002a030000e9
:020000040000fa
:0402e8002a030000e5
:020000040000fa
:0402ec002a030000e1
:020000040000fa
:0402f0002a030000dd
:020000040000fa
:0402f4002a030000d9
:020000040000fa
:0402f8002a030000d5
:020000040000fa
:0402fc002a030000d1
:020000040000fa
:040300002a030000cc
:020000040000fa
:040304002a030000c8
:020000040000fa
:040308002a030000c4
:020000040000fa
:04030c002a030000c0
:020000040000fa
:040310002a030000bc
:020000040000fa
:040314002a030000b8
:020000040000fa
:040318002a030000b4
:020000040000fa
:04031c002a030000b0
:020000040000fa
:040320002a030000ac
:020000040000fa
:040324002a030000a8
:020000040000fa
:040328002a030000a4
:020000040000fa
:04032c002a030000a0
:020000040000fa
:040330002a0300009c
:020000040000fa
:040334002a03000098
:020000040000fa
:040338002a03000094
:020000040000fa
:04033c002a03000090
:020000040000fa
:040340002a0300008c
:020000040000fa
:040344002a03000088
:020000040000fa
:040348002a03000084
:020000040000fa
:04034c002a03000080
:020000040000fa
:040350002a0300007c
:020000040000fa
:040354002a03000078
:020000040000fa
:040358002a03000074
:020000040000fa
:04035c002a03000070
:020000040000fa
:040360002a0300006c
:020000040000fa
:040364002a03000068
:020000040000fa
:100400002f8420000e7f24000e01880000000000d1
:10041000000020000000e000020032000001200087
:1004200020028800140007008c0007000000e00094
:1004300003003a00e0112100010020000200370013
:100440000000200001002000810f70000100320038
:1004500014000700000020000000e000020032004d
:100460000000020000000000101002000000000068
:100470000040da000000fe004440a9000000200017
:100480000000e0000300320000002000a00188000e
:100490004440a800000006008a1f78008b1f7800e7
:1004a0000000060091018800800478000000eb0045
:1004b0001a003700e284440032a0b4009905ba0063
:1004c000e284440032a0b4009906ba00e2844400f9
:1004d00032a0b4000006eb00476fde00fd07b2005b
:1004e000636ce10003003a00ebff07000000eb0043
:1004f0000a003700606ce10004003a00005deb0088
:100500008b05e900fdff3e00040037006168e10053
:10051000010032000086eb000b00070019c7ba008b
:100520001905ba000e04e00003003a000a00e000da
:10053000e0ff3a0000000600fe07b2009e018800be
:100540008a047800f5ff3700395dba008b05e900b1
:100550000c003200295dba008b05e900080032006a
:100560000c00e00003003a00e284440032a0b40032
:10057000f5ff370019ddba008b05e900faff3a00f4
:100580008904e800e184440032a0b40000000600c1
:10059000980b0400000000008c0b04000000000019
:1005a000ac0b0400000000003600f800809fbe0085
:1005b000829fbe00849fbe00869fbe000000fa009e
:1005c0008560a9003011800000407800c4ba200086
:1005d0008001eb00b200200080407800a082200063
:1005e000a00207000080fa004f03be004f02be00c9
:1005f0004f01be004f00be003600f900004006006b
:100600003600f800809fbe00829fbe00849fbe001f
:10061000869fbe000000fa000002eb0023002000cd
:1006200082b92000c1b820000084200059030700cf
:100630001ce8b70087e0a9000080fa004f03be0065
:100640004f02be004f01be004f00be003600f90051
:10065000004006000040da000000fe000000050037
:1006600003f0a200889fbe008a9fbe008c1f780006
:10067000f8000700ff0033006450e1004f00320033
:100680006420e1005200320003826c0007003b004e
:100690000905d0000306d000820f54000c065d004f
:1006a0000200390002003200890178000306780058
:1006b0008582550004003d000003fd008103fd001c
:1006c0008502ea008b854200840f720002003b0025
:1006d00060001000e08018006011b8000005eb0019
:1006e0007a28e1000a00390006007800c75ddd00c5
:1006f000f707b200878075002d00370082817100f6
:100700000a017800610560008180d1000080d3007b
:100710008502e900f9ff3b00060440008784480099
:1007200002003b0060041400e0841c000988a30060
:10073000070032008a8171008281710061016400ca
:100740008904d1000884d3008b05e8001700370026
:100750000978a30013003a000b00e00013003400f6
:100760008b05e9000804440089844c000a447400a5
:100770000978a3000d003a000b00e00007003400e8
:100780008b05e9000804440089844c0001003a000c
:100790000b0020000978a300f7ff32000001eb00f6
:1007a00002003700828171000a0178006e000700a4
:1007b0000cf0a70001f0a000b70037006420e100b2
:1007c00002003a00838f6c00b70033000801be00be
:1007d0000200be00b0003700889fbe008a9fbe00a6
:1007e0008c1f78009b000700a200330003866c007a
:1007f0006450e1002e0032006420e100330032003a
:100800006150e1002f0032006120e1003100320030
:1008100085855500eb07b000090020000804200082
:10082000050037000804440089844c000a003100a8
:100830000603430087834b000001530081815b0066
:10084000f8ff33000203be000800a00008044400c3
:1008500089844c00f6ff3900c639dd00830173003e
:1008600001003200130020008904d1000884d30065
:100870000998a300050032000800a7000300a000ab
:100880008904d1000884d3008b05e8008904d100d5
:100890000884d3000001eb000281d200320007007f
:1008a00001f0a1000cf0a70001f0a0007a003700d1
:1008b0006420e1007c0032000801be000200be009e
:1008c000f7ff37006120e100770032006000b800d8
:1008d000f3ff37000000200001f82700f0ff370089
:1008e00014002000a7003700f4ff2f00a5003700f8
:1008f0000001be00420007000470a70003f0a10041
:1009000003f8a30013003a006509b100100032009b
:10091000090035006928e1000200350001002800c7
:100920000000050000004000818048008502e900c9
:10093000fcff3a0000000600f88f42000500350079
:100940008100d1000080d3008502e800fcff3a005e
:10095000000006008000eb00000005004f89de006b
:1009600082017800a20037008100200061805500dc
:100970000b003d000b00200061fe2f000100e10094
:100980001d00340082817100610164008904d1007e
:100990000884d3000000e800faff3a00710020004c
:1009a0006100640003007000020060000900320072
:1009b00061044400e0844c000988a5000500320071
:1009c0008b05e8006808e10002003a008904d100c4
:1009d0000884d300f20f20000258e10005003d001a
:1009e000c75ddd00f907b200898075000800780056
:1009f000000006000bf827008b00780000000500bf
:100a0000c70ade00f107b200f50fb200080032009d
:100a1000e1cf4200020032000170a0002400050076
:100a2000810f700001003200040805004400050039
:100a3000810f700002003a00140005008502e900f1
:100a40000000400081c04800fcff3b000170a00096
:100a5000240005000004be00e9ff07000003be00fb
:100a60000405be000200be00e5ff0700844f7500cc
:100a7000000006000200be006450e10005003600e0
:100a80006420e100020036000968a30001003a007a
:100a90000800be000160a0004f0678004f05be00b0
:100aa0004f04be0000000600f0ff2f00f1ff2700fa
:100ab000f9ff3700889fbe008a9fbe008c1f780018
:100ac000e4ff0700ebff330003866c006450e10095
:100ad000240032006420e100270032006150e10070
:100ae000220032006120e100210032008b854200ab
:100af000eb07b1000134b800003ab8000804420026
:100b000089844a00013ab8000030b800888040006b
:100b100009014a00040033000000400081804800c1
:100b2000020149008b05e900c909dd00830170005d
:100b30000100320013002000c814de004814dd005c
:100b40004709de001200b200c808de000884700009
:100b500085ff070001f0a1000cf0a70001f0a00044
:100b6000cdff37006120e100cfff32000801be0059
:100b70000200be00f7ff37006150e100fcff3a00c1
:100b8000c9ff3700889fbe008a9fbe00841f78007f
:100b9000b0ff07004f00780011003300f0ff2f0076
:100ba000838f6c0006003b00040565000a00a70067
:100bb0000800370009f0a6001000200008003700e8
:100bc000820f5400838f5c00030039001000200066
:100bd00001003e000000200009f0a7000000ea002c
:100be0004f05be004f04be000000e00000000600fc
:100bf000881f7800030478000300e00007003d0030
:100c000060001000e080180060011900e081190008
:100c100002003b0001f02d00030037000400070034
:100c200008f0a70001f0a0004f04780000000600c3
:100c3000889fbe008a9fbe0000827000040271007f
:100c400004827100260032000004be000200be00d3
:100c50006011b8006b092000950220000182cf00ce
:100c60000a0039000541b1000082cf0007003900b9
:100c70000541b1000982cf00040039000541b100ef
:100c80000882cf00010039000541b1000542520041
:100c9000120032000a003b00828171006101640091
:100ca0008100d1000080d3008984d3000884d30060
:100cb0008b05e8000442e800f7ff3a000700370020
:100cc0000804440089844c000000480081804800ea
:100cd0008b05e9000442e900f9ff3a0022ff070012
:0c0ce0004f05be004f04be0000000600df
:020000040000fa
:100cec000800fa00000f78001107980022079800fe
:100cfc0033079800218020003e0090004200dd0068
:100d0c00008040000080e8001100200001087800fd
:100d1c00218020003e0090004200dd000080400059
:100d2c008000eb0001087800b30037002180200020
:100d3c003e0090004200dd00008040001000780072
:100d4c00000040001e00400022802000be009000e9
:100d5c00c208dd008180e80081004100910078002c
:100d6c00818040001e0190008100410091007800bc
:100d7c00c408de00efc060008180fb00ef806000e3
:100d8c00c408dd0090017800f2f02f0002816100b0
:100d9c008280700001087800218020003e009000c5
:100dac004200dd0000804000100078000000400090
:100dbc001e00400022802000be009000c208dd0012
:100dcc008180e80081004100910078008100e800fa
:100ddc00818040001e01900081004100910078004c
:100dec00c408de00efc060008180fb00ef80600073
:100dfc009001780002ff2f00028161008280700058
:100e0c0001087800218020003e0090004200dd00a7
:100e1c000080e800008040001000780000004000d6
:100e2c009e00900000804000100078004400de001e
:100e3c006f4060008080fb00228020003e0090000c
:100e4c004200dd000080e800000041001000780046
:100e5c000000e800000040001e019000000041006e
:100e6c00100078006f4060000080fb0001007000f3
:100e7c00ef0f50000b003a00218020003e00900044
:100e8c004200dd00008040001000780000004000af
:100e9c001e004000900078000190a100010878002d
:100eac000a003700218020003e0090004200dd0047
:100ebc000080400010007800000040001e00400040
:100ecc00900078000190a00001087800218020009b
:100edc003e0090004200dd000080e80000804000f1
:100eec00100078000000e800000040009e00900018
:100efc0000804000100078004400de006f4060006d
:100f0c008080fb00228020003e0090004200dd002b
:100f1c000080e80000004100100078000080e8002c
:100f2c00000040001e0190000000410010007800fd
:100f3c006f4060000080fb0001007000ef0f50005c
:100f4c000b003a00218020003e0090004200dd00a2
:100f5c000080400010007800000040001e0040009f
:100f6c00900078000180a100010878000a00370089
:100f7c00218020003e0090004200dd0000804000f7
:100f8c0010007800000040001e0040009000780027
:100f9c000180a00001087800218020003e00900014
:100fac004200dd000080e800008040001000780066
:100fbc008080e800228020003e0090004200dd008e
:100fcc00000041000080e80001087800218020002a
:100fdc003e0090004200dd000080400010007800d0
:100fec008000e800228020003e0090004200dd00de
:100ffc000000410001087800218020003e00900094
:10100c004200dd0000804000900078002e0090002f
:10101c00808f500045ff3500a18020003e009000dd
:10102c004200dd00008040000080e8008040eb00c2
:10103c0001487800a18020003e0090004200dd00b5
:10104c00008040000080e8008040eb0011409800d8
:10105c000080fa00000006000a00fa00000f780079
:10106c0021479800220798003307980044079800fe
:10107c004e009000000001000004e0001600320059
:10108c00a18020003e0090004200dd000080400066
:10109c000080e8008040eb0011409800a180200007
:1010ac003e0090004200dd00008040001100200056
:1010bc0001087800a18020003e0090004200dd0075
:1010cc00008040000080e8008040eb000148780080
:1010dc0010c0b30098003700a18020003e009000a3
:1010ec004200dd000080e8000080400010407800e5
:1010fc000004a2000004e0003c003200a1802000ab
:10110c003e0090004200dd000080e80000804000be
:10111c00104090000080fb00000040001e004000ca
:10112c00ae40900001487800a18020003e00900065
:10113c004200dd000080e80000804000104090007c
:10114c000004e0001a0032001e80e8001000780055
:10115c006f006000e50f50000d003a00a1802000e8
:10116c003e0090004200dd00008040001100200095
:10117c0001087800a18020003e0090004200dd00b4
:10118c00008040000080e80011c0b30001487800e6
:10119c00a18020003e0090004200dd000080400055
:1011ac000080e8008040eb0011409800610037009f
:1011bc001e0078009040780030c5b30080cf5000fe
:1011cc0008003a00a18020003e0090004200dd00a3
:1011dc00008040000080e80011c0b300114098006e
:1011ec005400370010c0b30053003700a18020001a
:1011fc003e0090004200dd000080400010007800ae
:10120c008000e800a28020003e0090004200dd003b
:10121c000000410001087800a18020003e009000f1
:10122c004200dd000080400010007800000040000b
:10123c001e004000ae40900001487800a1802000c4
:10124c003e0090004200dd0000804000100078005d
:10125c00000040001e0040009040780030c4b300f5
:10126c0080cf50001d003a00a18020003e0090006d
:10127c004200dd0000804000100078000000e90012
:10128c00000040001e00400090007800000f20007d
:10129c008080600000032000808f50000f003a0017
:1012ac00a18020003e0090004200dd000080400044
:1012bc001100200001087800a18020003e00900061
:1012cc004200dd00008040000080e8008040eb0020
:1012dc000148780020c0b30017003700a18020001f
:1012ec003e0090004200dd0000804000900078003d
:1012fc002e0090000000e900808f50000d003a0095
:10130c00a18020003e0090004200dd0000804000e3
:10131c001100200001087800a18020003e00900000
:10132c004200dd00008040000080e8008040eb00bf
:10133c00014878000040eb000080fa000000060035
:10134c000600fa00000f7800110798004247980039
:10135c004e4090000004a2000004e000080032009f
:10136c009e00780030c5b300010001009e00900083
:10137c0010c0b3000100010050c0b30000e8b7007a
:10138c000080fa00000006000a00fa00000f780046
:10139c00110798002207980033079800440798001b
:1013ac004e0090006600b90080007800e0812000bb
:1013bc0000804000900078003e009000808f50002c
:1013cc005c0032004e0090006600b900800078008e
:1013dc00e081200000804000100078000000e00058
:1013ec0002003a0050c0b30000e8b7004e00900075
:1013fc006600b90000007800e4004000e0812000a5
:10140c0000804000104078000004e000180032001a
:10141c004e0090006600b90080007800e08120004a
:10142c0000804000100078001e0040001040780042
:10143c008040780000cfb30080c0600000c8bf00bf
:10144c006f40600000c070009e0090000100010021
:10145c004e0090006600b9008000780020822000c9
:10146c00008040008040eb00014878007d00370090
:10147c004e0090006600b90080007800e0812000ea
:10148c0000804000100078001e00400010407800e2
:10149c0000c0ea0000e8b7004e0090006600b900fa
:1014ac0080007800e081200000804000100078006f
:1014bc001e004000104078000080fb004400dd005e
:1014cc008040780000c8bf000080fb004400de00b4
:1014dc000040780000c070009e00900001000100e8
:1014ec004e0090006600b900800078002082200039
:1014fc000080400011c0b300014878004e009000fd
:10150c006600b90080007800e08120000080400077
:10151c00100078000001e8004e0090006600b90051
:10152c0080007800e08120000080400002087800f4
:10153c004c0037004e0090006600b90000007800a7
:10154c008080e800e08120000080400010007800de
:10155c000000e00015003a0000c8bf00ef4060003a
:10156c0000c3b30000c070009e0090000100010099
:10157c004e0090006600b900000078008080e80002
:10158c00e081200000804000100078000001e8009d
:10159c004e0090006600b9008000780000822000a8
:1015ac0000804000020878002e0037004e009000aa
:1015bc006600b900000078008080e800e08120001f
:1015cc000080400010007800e10f500012003a003b
:1015dc009e00900030c4b300010001004e0090004a
:1015ec006600b900000078008080e800e0812000ef
:1015fc0000804000100078000001e8004e009000d0
:10160c006600b90080007800008220000080400055
:10161c0002087800130037004e0090006600b900f5
:10162c008000780000822000008040008000eb00e9
:10163c00010878004e0090006600b9008000780028
:10164c00e0812000008040008000eb000108780061
:10165c00ae0090000040eb000100010010c0b30090
:10166c00010037000040eb000080fa00000006008b
:10167c000000fa001a28ef000a003700d040800062
:10168c00218020004200dd00008040000080e80046
:10169c001100200001087800d04080000000e80014
:1016ac00d0408800d0408000e10f5000f3ff3400a0
:1016bc001a28ef0010003700d0408000a1802000d5
:1016cc004200dd000080400011002000010878007d
:1016dc00d04080006600b900800078002082200095
:1016ec000080400011c0b30001487800d040800059
:1016fc000000e800d0408800d0408000e10f50008e
:10170c00edff34000080fa00000006000200fa0031
:10171c00004f78001e80fb00a01188000080fa00aa
:10172c00000006000200fa00004f78001e80fb004b
:10173c004f00dd00b104800001f0a1000100700039
:10174c00b00488000080fa00000006000200fa00d5
:10175c0010118000640060000000e00004003a00fa
:10176c0010118000620060000000e0000a003200ee
:10177c0030118000004f780080802000001188001c
:10178c00000022001011880021e2a8002342a800ca
:10179c0010c0b300010037000040eb000080fa00dd
:1017ac00000006000600fa00200798000000eb007d
:1017bc00000f78000000eb00100798008001eb0090
:1017cc0042002000a18220002081200044fd07005f
:1017dc0020812000104078008080fb001e00e80073
:1017ec00808f500004003a001e0090000000e800ba
:1017fc001007980006003700208120001040780068
:10180c00e14f4000650032000000eb00100798002b
:10181c001e009000ea0f5000480036001e007800b1
:10182c004200dd00ae0090000081400020812000cd
:10183c00204090000000fb00cf80de000089be003d
:10184c001e0078004200dd00ae00900000824000d7
:10185c001e0078004200dd00ae00900000804000c9
:10186c001001be004818dd00c810de0081007000b9
:10187c004810dd00008abe001e0078004200dd002a
:10188c00ae009000008240001e0078004200dd0097
:10189c00ae009000008040001001be0020812000ae
:1018ac00404090000080fb008000eb0000007100c5
:1018bc0081807100008abe001e0078004200dd00ad
:1018cc00ae009000008240001e0078004200dd0057
:1018dc00ae009000008040001001be004818dd00f2
:1018ec00c810de00810070004810dd00008abe00c8
:1018fc001e0078004200dd00ae0090000082400027
:10190c001e0078004200dd00ae0090000080400018
:10191c001001be0020812000604090000080fb0080
:10192c008000eb000000710081807100008abe0015
:10193c001e0fe8000000eb00100798001cc8bf0049
:10194c000004e000110032001e0078008040780096
:10195c000084200001487800b00480004f00de00b5
:10196c00004078000080fb0000f0a7000000ea00b7
:10197c000000ea004f00de000040780000417800d3
:10198c0081b92000c0b820006dfe070000d42000f3
:10199c00310020001802070088ff3700000000000b
:1019ac000080fa00000006000200fa00000f780028
:1019bc001e007800040007001e0078005500070088
:1019cc000080fa00000006000400fa00881f78006e
:1019dc00100798000000eb00000f7800260037007d
:1019ec001e0078004200dd009e0090000080400048
:1019fc001000be0001f0a10018c0b30002002000ce
:101a0c00832c2400b5fb07000000e00001003c0023
:101a1c000044eb000804e000160032001e007800c1
:101a2c004200dd009e009000008440001e00780003
:101a3c004200dd009e009000008040001002be00bd
:101a4c001e0078004200dd009e00900000804000e7
:101a5c001000be0001f0a1000001be000400be0099
:101a6c005afb070002002000832c24000efc070008
:101a7c00008cbe001e0fe8001e007800e10f500025
:101a8c00d7ff36001e0090001000be0001f0a10030
:101a9c000001be0000002000812c2400edfa07009c
:101aac000200200003502400fffb0700a2702d0051
:101abc0033c22300fcfb07008afb07000000780000
:101acc00000c88001e009000640040001000be0056
:101adc0001f0a1000001be0000002000812c2400b8
:101aec00dcfa07000200200003502400eefb070084
:101afc00a2702d0033c22300ebfb070079fb07001b
:101b0c0000007800300c88004f0478000080fa0048
:101b1c00000006000200fa00881f7800000f780011
:101b2c001e0078001000be006011b80069fb0700b1
:101b3c000000e00003003a00c442a900cd82a900d5
:101b4c000f0037001e0078001000be0018c0b30054
:101b5c006011b80061fb07000000e00001003c00d0
:101b6c000044eb000804e00003003200c442a8006b
:101b7c00cd82a90002003700c442a900cd82a80082
:101b8c009e007800648040001000be006011b80018
:101b9c0050fb07000000e00003003a00c462a900fb
:101bac00cda2a900100037009e0078006480400090
:101bbc001000be0018c0b3006011b80047fb07004e
:101bcc000000e00001003c000044eb000804e000d1
:101bdc0003003200c462a800cda2a90002003700a5
:101bec00c462a900cda2a8004f0478000080fa00be
:101bfc00000006000000fa0020012000403a880096
:101c0c0060022000303a8800213a800000fe2f004c
:101c1c0000806000203a8800213a8000f0f32f0009
:101c2c0000806000203a880012002000800720000d
:101c3c00a109200033742000804978008149780084
:101c4c0082497800120020006004200071052000f9
:101c5c0023742000804978008149780082497800fb
:101c6c0000000000113a8000000027008080600016
:101c7c0000002100808f5000faff3a0000000000a5
:101c8c00113a800000022000008060000000e0009b
:101c9c00fbff320011028000f0f12f000080600089
:101cac00100288004460a90081e0a90083e0a9002b
:101cbc006040a9006060a9009660a9008660a90038
:101ccc009580a90097e0a9009560a8009460a900f0
:101cdc009b40a9009d60a900500580007000b300d6
:101cec00500588009105800000002700010070005d
:101cfc009005880041058000f0ff2800808060007e
:101d0c0000002600010070004005880001068000dc
:101d1c00f08f2f00808060000050200001007000c8
:101d2c000006880041068000f0ff280080806000db
:101d3c00000025000100700040068800210580008d
:101d4c00f0ff28008080600000002500010070007a
:101d5c0020058800c842a900c862a900c9e2a900f0
:101d6c0071368000f00f2e00808060000050200043
:101d7c000100700070368800c962a800213580000f
:101d8c0000fe2f0000806000b000b30020358800fa
:101d9c00c8e2a800e134800000fe2f000080600043
:101dac007000b300e0348800c902a800e134800060
:101dbc00f00f2e000080600000b0a000e03488001e
:101dcc00c942a8000135800000fe2f000080600091
:101ddc00a000b30000358800c922a800013580009e
:101dec00f00f2e0080806000009020000100700039
:101dfc0000358800c982a900c042a900c062a900b0
:101e0c00c9a2a900c9c2a9007136800000fe2f002a
:101e1c00008060002001b30070368800c882a900e1
:101e2c002136800000fe2f00008060003001b300de
:101e3c00203688000080eb0060198800808020002c
:101e4c000011880000002200901188008580a900f4
:101e5c008560a900500a20004011880021e2a800ea
:101e6c002342a800808020008011880000002200fe
:101e7c009011880087e0a900500a2000c01188004a
:101e8c0031e2a8003342a800e1a1a900010f8000b3
:101e9c000070200001007000000f8800e0e1a90034
:101eac00e0c1a900e0a1a900e161a8000080eb005d
:101ebc00300f8800e421ef00f1a1a900810f800010
:101ecc000070200001007000800f8800f0e1a90074
:101edc00f0c1a900f0a1a900f161a8000080eb00fd
:101eec00b00f8800f421ef0005e1a9000441a9001e
:101efc00200880004200de00614060000080fb0092
:101f0c00610060004600dd00210880000160a10036
:101f1c000100700020088800200880004600de00c8
:101f2c00614060000080fb00610060000000400028
:101f3c00210880000110a100010070002008880019
:101f4c0005a1a90021088000f0fc2f000080600092
:101f5c00200888000021ef000221ef001061a90089
:101f6c00800880004300de00614060000080fb00c0
:101f7c00610060004600dd00810880000160a10066
:101f8c000100700080088800800880004600de0098
:101f9c00614060000080fb006100600000004000b8
:101fac00810880000110a1000100700080088800e9
:101fbc0011e1a80081088000f0fc2f000080600077
:101fcc0080088800210c800080ff2f0000806000ba
:101fdc006000b300200c880085a1a8008461a900d2
:101fec000080200060088800510c800080ff2f00ca
:101ffc00008060006000b300500c88008ba1a8002a
:10200c008a61a90000802000600888000080fa0026
:10201c00000006000c00fa004007980051079800d9
:10202c0093fd0700f3fe07006000b800008fbe00b0
:10203c006000b80020079800310798008001eb0081
:10204c0042002000a18220002081200024fb0700f8
:10205c002081200090407800008420000148780006
:10206c0020812000a04090001084200001487800be
:10207c00b00480004f00de00004078000080fb00c0
:10208c0000f0a7000000ea000000ea004f00de00ac
:10209c00004078000041780081b92000c0b82000d1
:1020ac00a7fc070000d420003100200052000700dc
:1020bc00e2ff37000400fa00889fbe008a1f7800f8
:1020cc00000f7800110798001e0078001000be0069
:1020dc000004be0009f0a1001e0090001000be001c
:1020ec001bfa07001ac0b3000001be000800be00b6
:1020fc00faf907000000e00001003c000045eb008d
:10210c000a04e000110032001e0090001000be0016
:10211c000ffa07000004be001e0078001002be007b
:10212c001e0078001000be0001f0a1000001be00ee
:10213c000400be00a5f907000001be000800be00a7
:10214c0059fa07001e0178000089be009e00780035
:10215c00648040001000be000004be0009f0a10025
:10216c001e009000640040001000be00f8f907004b
:10217c001ac0b3000001be000800be00d7f907006a
:10218c000000e00001003c000045eb000a04e00008
:10219c00150032009e007800648540001e009000ff
:1021ac00640040001000be00e9f907000004be0006
:1021bc009e007800648040001002be009e007800f3
:1021cc00648040001000be0001f0a1000001be00c0
:1021dc000400be007df907000001be000800be002f
:1021ec0031fa0700008dbe004f0578004f04be0089
:0821fc000080fa00000006005b
:020000040000fa
:10220400f03fb1000180b10006003500ee03090083
:1022140000000000403fb1000180b100fbff3d0021
:102224001000b000203fb00002003500008009001b
:0822340000000000000006009c
:020000040000fa
:10223c001c08000002000000020000000100000069
:10224c001e08000024000000000000000008000030
:0c225c001c00000000000000000000005a
:020000040000fa
:0200000401f009
:04000000ffff0000fe
:020000040000fa
:0200000401f009
:04000400ffff0000fa
:020000040000fa
:0200000401f009
:04000800ffff0000f6
:020000040000fa
:0200000401f009
:04000c008000000070
:020000040000fa
:0200000401f009
:0400100043000000a9
:020000040000fa
:0200000401f009
:040014005f00000089
:020000040000fa
:0200000401f009
:04001800970000004d
:020000040000fa
:0200000401f009
:04001c00dfff000002
:00000001FF
